:100000000C943D000C949D010C945A000C945A00E1
:100010000C946E010C945A000C945A000C945A00E3
:100020000C945A000C945A000C945A000C945A00E8
:100030000C945A000C945A000C945A000C945A00D8
:100040000C945A000C945A000C945A000C945A00C8
:100050000C945A00C403CB03D203E403CB03D203B2
:10006000E403CB03D203B504BC04D004D704BC041E
:10007000D004D704BC04D004D70411241FBECFE59C
:10008000D8E0DEBFCDBF10E0A0E6B0E0EEE4FFE0D8
:1000900002C005900D92AA3AB107D9F720E0AAEA6A
:1000A000B0E001C01D92A83BB207E1F70E94030235
:1000B0000C94A5070C940000DF92EF92FF920F932F
:1000C0001F93CF93DF938C01EB01D42E40E060E0CF
:1000D00081E00E945304E12CF12C14C0C8010E945D
:1000E000F901CE010E94F90164E274EF82E00E94FE
:1000F000EB0408B604FEFDCF88B7806188BF8FEFA0
:10010000E81AF80A8D2D90E0880F991FE816F90675
:100110002CF30E940905DF91CF911F910F91FF9061
:10012000EF90DF9008958091AC00882321F0833018
:1001300008F08BC03EC086E690E00E94E30184E6B2
:1001400090E00E94E30165E088E893E10E94ED03FE
:1001500086E690E00E94EE0184E690E00E94EE01C7
:1001600086E690E00E94EE0184E690E00E94E301C2
:1001700045E062E670E088E690E00E945C0084E67C
:1001800090E00E94EE0180E690E00E94E3018DEA9B
:1001900090E00E94E30165E088E893E10E94ED03AE
:1001A0008DEA90E00E94EE0180E690E00E94EE0170
:1001B000089588E690E00E94EE0180E690E00E94BB
:1001C000E30145E062E670E088E690E00E945C00B2
:1001D0008DEA90E00E94EE0180E690E00E94EE0140
:1001E00086E690E00E94E30184E690E00E94E3014D
:1001F00065E088E893E10E94ED0386E690E00E94C6
:10020000EE0184E690E00E94E30145E062E670E0E2
:1002100088E690E00E945C0084E690E00E94EE0197
:1002200080E690E00E94E3018DEA90E00E94E30105
:1002300065E088E893E10E94ED038DEA90E00E947A
:10024000EE0180E690E00E94EE01089582E0809346
:10025000AC008DEA90E00E94E30165E088E893E15C
:100260000E94ED038DEA90E00E94EE018091AA00C9
:1002700081112BC081E08093AC0045E060E070E02C
:1002800088E690E00E945C008091AA0081111DC068
:100290001092AC0086E690E00E94E30165E088E8F9
:1002A00093E10E94ED0386E690E00E94EE018091CA
:1002B000AA0081110AC081E08093AC0045E060E0B3
:1002C00070E088E690E00E945C008091AA0088239C
:1002D00021F00E9493001092AA0008951F920F929D
:1002E0000FB60F9211242F933F934F935F936F9309
:1002F0007F938F939F93AF93BF93EF93FF938091DF
:10030000AB008F5F8093AB006AEF70E087E00E94E4
:10031000370488B7806888BFFF91EF91BF91AF9194
:100320009F918F917F916F915F914F913F912F910D
:100330000F900FBE0F901F9018951F920F920FB63F
:100340000F9211248F938091AA00813019F081E0DF
:100350008093AA008F910F900FBE0F901F90189559
:100360000E94950281E00E94970286E690E00E943A
:10037000D80188E690E00E94D8018DEA90E00E94C2
:10038000D80180E690E00E94D80182E690E00E94C9
:10039000D80184E690E00E94D80162E083E00E94E8
:1003A000D4010E942601FDCF40E00E94080208957A
:1003B000009739F0FC0141E0618180810E940802D0
:1003C000089580E00895009739F0FC0141E06181D3
:1003D00080810E944202089580E00895009739F0DC
:1003E000FC0140E0618180810E944202089580E02A
:1003F0000895009731F0FC01618180810E947C02A8
:10040000089580E008950E94B00180E090E0089592
:10041000843090F5683090F5442319F04130B9F0FC
:100420002FC0E82FF0E0EE0FFF1FEE58FF4F0190B6
:10043000F081E02D81E090E002C0880F991F6A955D
:10044000E2F7809590818923808381E00895E82FE9
:10045000F0E0EE0FFF1FEE58FF4F0190F081E02D0E
:1004600081E090E002C0880F991F6A95E2F79081C1
:10047000892B808381E0089580E0089580E00895CD
:1004800080E00895843090F5683090F5442319F0A9
:100490004130B9F02FC0E82FF0E0EE0FFF1FE65912
:1004A000FF4F0190F081E02D81E090E002C0880FC5
:1004B000991F6A95E2F7809590818923808381E076
:1004C0000895E82FF0E0EE0FFF1FE659FF4F01906F
:1004D000F081E02D81E090E002C0880F991F6A95BD
:1004E000E2F79081892B808381E0089580E0089570
:1004F00080E0089580E008958430A8F4E82FF0E0CB
:10050000EE0FFF1FE659FF4F0190F081E02D81E0D3
:1005100090E002C0880F991F6A95E2F790818927C1
:10052000808381E0089580E008957894089591B3E0
:100530009B7F91BB9BB790649BBF95B7892B85BF71
:1005400081E008952F923F926F927F928F929F92B7
:10055000AF92BF92CF92DF92EF92FF920F931F93D1
:10056000CF93DF93CDB7DEB72A970FB6F894DEBFEF
:100570000FBECDBF1A013901882339F0823051F402
:10058000C12CD12C7601D39409C0C12CD12C760179
:10059000D39404C0C12CD12C7601E394E82FF0E071
:1005A000EE0FFF1FEE0FFF1FEE0FFF1FE60FF11DF7
:1005B000EE0FFF1FE658FF4F808191819A83898358
:1005C00069817A8180E090E00E943A0620E034E27E
:1005D00044E759E40E94990520E030E04AE754E4FA
:1005E0000E9432076B837C838D839E83C701B60193
:1005F0000E943A066F83788789879A879B01AC01AE
:100600006B817C818D819E810E9432074B015C0150
:10061000B10180E090E00E943A066B017C019B01F1
:10062000AC01C501B4010E949405811104C0F3011D
:10063000318220824BC0A7019601C501B4010E94FE
:100640002D07181694F4A7019601C501B4010E9464
:1006500010052B813C814D815E810E9499050E948D
:100660000B06F3017183608331C0A5019401C701BA
:10067000B6010E9499050E947D050E940B064B0160
:100680005C01F801718360832B813C814D815E8127
:10069000C701B6010E9499056B017C01B40180E09D
:1006A00090E00E943A069B01AC01C701B6010E948E
:1006B00099059B01AC016F81788589859A850E9497
:1006C00010050E940B06F3017183608381E02A9676
:1006D0000FB6F894DEBF0FBECDBFDF91CF911F9153
:1006E0000F91FF90EF90DF90CF90BF90AF909F90D1
:1006F0008F907F906F903F902F900895262F90912C
:10070000B500913009F45CC097B3986097BB813015
:1007100081F028F08230C1F0833009F153C093B7E3
:100720009F7B93BF93B7977F93BF99B7492B49BFDF
:1007300020C093B79F7B93BF93B7986093BF99B73F
:10074000440F492B49BF15C093B7906493BF93B72B
:10075000986093BF99B7440F492B49BF0AC093B71C
:10076000906493BF93B7977F93BF99B7440F492B7A
:1007700049BF422F50E0FA013197E930F10520F5E9
:10078000E65DFF4F0C949F0793B7906193BF93B7BB
:100790009F7D93BF0DC093B79F7E93BF93B7906229
:1007A00093BF06C093B7906193BF93B7906293BF16
:1007B000E5EBF0E091E090832283818381E008956E
:1007C00080E0089580E0089580E0089513BE12BE91
:1007D0001CBE1092B50081E00895CF92DF92FF9287
:1007E0000F931F93CF93DF9300D000D0CDB7DEB728
:1007F000683080F5F62E6C0140E060E080E00E94F9
:100800007E031A8219821C821B828E010D5F1F4F8C
:100810009E012F5F3F4FA6016F2D80E00E94A20234
:10082000898182BF83B79F2D9770892B83BF08B6BC
:1008300000FEFDCF88B7816088BF8B819C810097C7
:1008400029F001979C838B83892B51F70E94E60343
:1008500081E001C080E00F900F900F900F90DF912A
:10086000CF911F910F91FF90DF90CF900895883026
:10087000A0F49091AF00992391F09091B00099234A
:1008800019F0943070F402C064BD01C063BD95B529
:100890008770892B85BD81E0089580E0089580E010
:1008A000089580E00895262F9091B200913009F4C8
:1008B0008CC091B3906291BB8130C1F028F082303E
:1008C00039F18330B9F183C09FB59E7F9FBD9FB53D
:1008D0009D7F9FBD9EB5977F9EBD9EB59F7E9EBD11
:1008E00099B7440F440F492B49BF35C09FB59E7F30
:1008F0009FBD9FB59D7F9FBD9EB598609EBD9EB5D7
:100900009F7E9EBD99B74295407F492B49BF23C02A
:100910009FB591609FBD9FB592609FBD9EB5986049
:100920009EBD9EB590619EBD99B74295407F492B73
:1009300049BF11C09FB591609FBD9FB592609FBD9B
:100940009EB5977F9EBD9EB590619EBD99B742951D
:10095000407F492B49BF422F50E04A305105C8F52E
:10096000FA01ED5CFF4F0C949F079FB59F7B9FBDE5
:100970009FB59F779FBD21C09EEF980F923010F0DA
:10098000811107C09FB590649FBD9FB59F779FBDA4
:1009900014C09FB59F7B9FBD9FB59F779FBD0DC026
:1009A0009FB590649FBD9FB59F779FBD06C09FB5C3
:1009B00090649FBD9FB590689FBDE2EBF0E091E031
:1009C00090832283818381E0089580E0089580E010
:1009D000089580E008958830B0F49091B200992392
:1009E000A1F09091B300992319F0943080F403C0E2
:1009F0007DBD6CBD02C07BBD6ABD9EB58770892B75
:100A00008EBD81E0089580E0089580E0089580E043
:100A100008951FBC1DBC1CBC1092B20081E008955B
:100A20005058BB27AA270E9428050C94DB060E9479
:100A3000CD0638F00E94D40620F039F49F3F19F417
:100A400026F40C94CA060EF4E095E7FB0C949B0682
:100A5000E92F0E94EC0658F3BA1762077307840760
:100A6000950720F079F4A6F50C9426070EF4E0958E
:100A70000B2EBA2FA02D0B01B90190010C01CA0158
:100A8000A0011124FF27591B99F0593F50F4503E03
:100A900068F11A16F040A22F232F342F4427585FF5
:100AA000F3CF469537952795A795F0405395C9F70D
:100AB0007EF41F16BA0B620B730B840BBAF09150C5
:100AC000A1F0FF0FBB1F661F771F881FC2F70EC064
:100AD000BA0F621F731F841F48F487957795679537
:100AE000B795F7959E3F08F0B0CF9395880F08F023
:100AF0009927EE0F9795879508950E940E0790F01D
:100B00009F3748F4911116F40C94270760E070E0C9
:100B100080E89FE3089526F01B16611D711D811D5D
:100B20000C94A1060C94BC060E94770608F481E0A0
:100B300008950E94AD050C94DB060E94D40658F07F
:100B40000E94CD0640F029F45F3F29F00C949B06EB
:100B500051110C9427070C94CA060E94EC0668F306
:100B60009923B1F3552391F3951B550BBB27AA2766
:100B700062177307840738F09F5F5F4F220F331FA0
:100B8000441FAA1FA9F335D00E2E3AF0E0E832D068
:100B900091505040E695001CCAF72BD0FE2F29D06B
:100BA000660F771F881FBB1F261737074807AB073D
:100BB000B0E809F0BB0B802DBF01FF2793585F4FB2
:100BC0003AF09E3F510578F00C949B060C94270751
:100BD0005F3FE4F3983ED4F3869577956795B79594
:100BE000F7959F5FC9F7880F911D9695879597F99F
:100BF0000895E1E0660F771F881FBB1F6217730718
:100C00008407BA0720F0621B730B840BBA0BEE1F2C
:100C100088F7E09508950E94F40688F09F5798F0B1
:100C2000B92F9927B751B0F0E1F0660F771F881FF1
:100C3000991F1AF0BA95C9F714C0B13091F00E940B
:100C40002607B1E008950C942607672F782F882790
:100C5000B85F39F0B93FCCF3869577956795B39532
:100C6000D9F73EF490958095709561957F4F8F4FA1
:100C70009F4F0895E89409C097FB3EF490958095A6
:100C8000709561957F4F8F4F9F4F9923A9F0F92F52
:100C900096E9BB279395F695879577956795B795D0
:100CA000F111F8CFFAF4BB0F11F460FF1BC06F5FB6
:100CB0007F4F8F4F9F4F16C0882311F096E911C0C8
:100CC000772321F09EE8872F762F05C0662371F0E9
:100CD00096E8862F70E060E02AF09A95660F771FFD
:100CE000881FDAF7880F9695879597F90895990FD9
:100CF0000008550FAA0BE0E8FEEF16161706E807E6
:100D0000F907C0F012161306E407F50798F0621B06
:100D1000730B840B950B39F40A2661F0232B242BDB
:100D2000252B21F408950A2609F4A140A6958FEFFA
:100D3000811D811D089597F99F6780E870E060E04C
:100D40000895882371F4772321F09850872B762F0C
:100D500007C0662311F499270DC09051862B70E0CF
:100D600060E02AF09A95660F771F881FDAF7880FE0
:100D70009695879597F908959F3F31F0915020F40B
:100D8000879577956795B795880F911D9695879567
:100D900097F908959FEF80EC089500240A941616A1
:100DA000170618060906089500240A941216130659
:100DB000140605060895092E0394000C11F48823E7
:100DC00052F0BB0F40F4BF2B11F460FF04C06F5F03
:100DD0007F4F8F4F9F4F089557FD9058440F551FD9
:100DE00059F05F3F71F04795880F97FB991F61F0AD
:100DF0009F3F79F087950895121613061406551F24
:100E0000F2CF4695F1DF08C0161617061806991F8F
:100E1000F1CF869571056105089408950E94F40646
:100E2000A0F0BEE7B91788F4BB279F3860F4161608
:100E3000B11D672F782F8827985FF7CF8695779514
:100E40006795B11D93959639C8F30895E894BB272B
:100E500066277727CB0197F908950E94770608F453
:100E60008FEF08950E9445070C94DB060E94CD0683
:100E700038F00E94D40620F0952311F00C949B06C4
:100E80000C94CA0611240C9427070E94EC0670F3F8
:100E9000959FC1F3950F50E0551F629FF001729F1F
:100EA000BB27F00DB11D639FAA27F00DB11DAA1F2E
:100EB000649F6627B00DA11D661F829F2227B00D7B
:100EC000A11D621F739FB00DA11D621F839FA00D06
:100ED000611D221F749F3327A00D611D231F849F56
:100EE000600D211D822F762F6A2F11249F575040AD
:100EF0009AF0F1F088234AF0EE0FFF1FBB1F661F28
:100F0000771F881F91505040A9F79E3F510580F0F0
:100F10000C949B060C9427075F3FE4F3983ED4F3B0
:100F2000869577956795B795F795E7959F5FC1F794
:100F3000FE2B880F911D9695879597F90895EE0FD2
:0E0F4000FF1F0590F491E02D0994F894FFCF67
:100F4E00010201010100000200013B0038003500E2
:100F5E0032003A0037003400310000000100080072
:100F6E004000000100040000000000000100080025
:100F7E004000000100040000000000000100080015
:0A0F8E002000400080000001000474
:00000001FF
